{
  "contractName": "RedPacket",
  "abi": [
    {
      "constant": true,
      "inputs": [],
      "name": "enabled",
      "outputs": [
        {
          "name": "",
          "type": "bool"
        }
      ],
      "payable": false,
      "stateMutability": "view",
      "type": "function"
    },
    {
      "constant": true,
      "inputs": [],
      "name": "sub_packet_cnt_upper",
      "outputs": [
        {
          "name": "",
          "type": "uint256"
        }
      ],
      "payable": false,
      "stateMutability": "view",
      "type": "function"
    },
    {
      "constant": true,
      "inputs": [],
      "name": "upper",
      "outputs": [
        {
          "name": "",
          "type": "uint256"
        }
      ],
      "payable": false,
      "stateMutability": "view",
      "type": "function"
    },
    {
      "constant": true,
      "inputs": [],
      "name": "period",
      "outputs": [
        {
          "name": "",
          "type": "uint256"
        }
      ],
      "payable": false,
      "stateMutability": "view",
      "type": "function"
    },
    {
      "inputs": [],
      "payable": false,
      "stateMutability": "nonpayable",
      "type": "constructor"
    },
    {
      "anonymous": false,
      "inputs": [
        {
          "indexed": true,
          "name": "group_id",
          "type": "uint256"
        },
        {
          "indexed": true,
          "name": "packed_id",
          "type": "uint256"
        },
        {
          "indexed": false,
          "name": "sender",
          "type": "address"
        },
        {
          "indexed": false,
          "name": "amount",
          "type": "uint256"
        },
        {
          "indexed": false,
          "name": "count",
          "type": "uint256"
        },
        {
          "indexed": false,
          "name": "msg_sent",
          "type": "bool"
        }
      ],
      "name": "CreateRedPacket",
      "type": "event"
    },
    {
      "anonymous": false,
      "inputs": [
        {
          "indexed": true,
          "name": "group_id",
          "type": "uint256"
        },
        {
          "indexed": true,
          "name": "packet_id",
          "type": "uint256"
        },
        {
          "indexed": false,
          "name": "amount",
          "type": "uint256"
        }
      ],
      "name": "GrapRedPacket",
      "type": "event"
    },
    {
      "anonymous": false,
      "inputs": [
        {
          "indexed": true,
          "name": "packet_id",
          "type": "uint256"
        },
        {
          "indexed": false,
          "name": "remains",
          "type": "uint256"
        }
      ],
      "name": "Refund",
      "type": "event"
    },
    {
      "constant": false,
      "inputs": [
        {
          "name": "groupchat",
          "type": "address"
        }
      ],
      "name": "setGroupChat",
      "outputs": [],
      "payable": false,
      "stateMutability": "nonpayable",
      "type": "function"
    },
    {
      "constant": false,
      "inputs": [],
      "name": "enableContract",
      "outputs": [],
      "payable": false,
      "stateMutability": "nonpayable",
      "type": "function"
    },
    {
      "constant": false,
      "inputs": [],
      "name": "disableContract",
      "outputs": [],
      "payable": false,
      "stateMutability": "nonpayable",
      "type": "function"
    },
    {
      "constant": false,
      "inputs": [
        {
          "name": "new_period",
          "type": "uint256"
        }
      ],
      "name": "setPeriod",
      "outputs": [],
      "payable": false,
      "stateMutability": "nonpayable",
      "type": "function"
    },
    {
      "constant": false,
      "inputs": [
        {
          "name": "new_upper",
          "type": "uint256"
        }
      ],
      "name": "setUpper",
      "outputs": [],
      "payable": false,
      "stateMutability": "nonpayable",
      "type": "function"
    },
    {
      "constant": false,
      "inputs": [
        {
          "name": "new_cnt",
          "type": "uint256"
        }
      ],
      "name": "setSubPacketCntUpper",
      "outputs": [],
      "payable": false,
      "stateMutability": "nonpayable",
      "type": "function"
    },
    {
      "constant": false,
      "inputs": [
        {
          "name": "group_id",
          "type": "uint256"
        },
        {
          "name": "count",
          "type": "uint256"
        }
      ],
      "name": "createRedPacket",
      "outputs": [
        {
          "name": "",
          "type": "uint256"
        }
      ],
      "payable": true,
      "stateMutability": "payable",
      "type": "function"
    },
    {
      "constant": false,
      "inputs": [
        {
          "name": "packet_id",
          "type": "uint256"
        }
      ],
      "name": "grapRedPacket",
      "outputs": [],
      "payable": false,
      "stateMutability": "nonpayable",
      "type": "function"
    },
    {
      "constant": false,
      "inputs": [
        {
          "name": "packet_id",
          "type": "uint256"
        }
      ],
      "name": "refund",
      "outputs": [],
      "payable": false,
      "stateMutability": "nonpayable",
      "type": "function"
    },
    {
      "constant": false,
      "inputs": [
        {
          "name": "to",
          "type": "address"
        }
      ],
      "name": "changeOwner",
      "outputs": [],
      "payable": false,
      "stateMutability": "nonpayable",
      "type": "function"
    }
  ],
  "bytecode": "0x60806040526001600060146101000a81548160ff0219169083151502179055506201518060035569021e19e0c9bab24000006004556064600555600060065534801561004a57600080fd5b50336000806101000a81548173ffffffffffffffffffffffffffffffffffffffff021916908373ffffffffffffffffffffffffffffffffffffffff16021790555061282e8061009a6000396000f3006080604052600436106100d0576000357c0100000000000000000000000000000000000000000000000000000000900463ffffffff1680630f3a9f65146100d5578063238dafe014610102578063278ecde1146101315780633560d99d1461015e578063367edd321461018b5780634150bca0146101a257806347430474146101cd5780634bdf4a6d146101fa578063894ba83314610225578063976e08871461023c578063a6f9dae11461027f578063dabcaf06146102c2578063e4cf4d4d14610300578063ef78d4fd1461032d575b600080fd5b3480156100e157600080fd5b5061010060048036038101908080359060200190929190505050610358565b005b34801561010e57600080fd5b50610117610505565b604051808215151515815260200191505060405180910390f35b34801561013d57600080fd5b5061015c60048036038101908080359060200190929190505050610518565b005b34801561016a57600080fd5b5061018960048036038101908080359060200190929190505050610908565b005b34801561019757600080fd5b506101a0610a91565b005b3480156101ae57600080fd5b506101b7610b98565b6040518082815260200191505060405180910390f35b3480156101d957600080fd5b506101f860048036038101908080359060200190929190505050610b9e565b005b34801561020657600080fd5b5061020f6114dc565b6040518082815260200191505060405180910390f35b34801561023157600080fd5b5061023a6114e2565b005b34801561024857600080fd5b5061027d600480360381019080803573ffffffffffffffffffffffffffffffffffffffff1690602001909291905050506115e8565b005b34801561028b57600080fd5b506102c0600480360381019080803573ffffffffffffffffffffffffffffffffffffffff169060200190929190505050611757565b005b6102ea600480360381019080803590602001909291908035906020019092919050505061189f565b6040518082815260200191505060405180910390f35b34801561030c57600080fd5b5061032b600480360381019080803590602001909291905050506121f0565b005b34801561033957600080fd5b5061034261244d565b6040518082815260200191505060405180910390f35b600060149054906101000a900460ff16151561037357600080fd5b6000809054906101000a900473ffffffffffffffffffffffffffffffffffffffff1673ffffffffffffffffffffffffffffffffffffffff163373ffffffffffffffffffffffffffffffffffffffff1614151561045d576040517f08c379a00000000000000000000000000000000000000000000000000000000081526004018080602001828103825260258152602001807f596f75277265206e6f7420746865206f776e6572206f66207468697320636f6e81526020017f747261637400000000000000000000000000000000000000000000000000000081525060400191505060405180910390fd5b603c811115156104fb576040517f08c379a00000000000000000000000000000000000000000000000000000000081526004018080602001828103825260278152602001807f54686520706572696f642073686f756c642067726561746572207468616e203181526020017f206d696e7574650000000000000000000000000000000000000000000000000081525060400191505060405180910390fd5b8060038190555050565b600060149054906101000a900460ff1681565b6007600082815260200190815260200160002060060160009054906101000a900460ff1615156105b0576040517f08c379a00000000000000000000000000000000000000000000000000000000081526004018080602001828103825260158152602001807f54686973207061636b6574206e6f7420666f756e64000000000000000000000081525060200191505060405180910390fd5b6000600760008381526020019081526020016000206005015411151561063e576040517f08c379a00000000000000000000000000000000000000000000000000000000081526004018080602001828103825260188152602001807f54686973207061636b657420697320656d707479206e6f77000000000000000081525060200191505060405180910390fd5b600060076000838152602001908152602001600020600401541115156106cc576040517f08c379a00000000000000000000000000000000000000000000000000000000081526004018080602001828103825260188152602001807f54686973207061636b657420697320656d707479206e6f77000000000000000081525060200191505060405180910390fd5b426003546007600084815260200190815260200160002060070154011115151561075e576040517f08c379a000000000000000000000000000000000000000000000000000000000815260040180806020018281038252601f8152602001807f596f757220726564207061636b6574206973207374696c6c206c6f636b65640081525060200191505060405180910390fd5b3373ffffffffffffffffffffffffffffffffffffffff166007600083815260200190815260200160002060010160009054906101000a900473ffffffffffffffffffffffffffffffffffffffff1673ffffffffffffffffffffffffffffffffffffffff1614151561085d576040517f08c379a00000000000000000000000000000000000000000000000000000000081526004018080602001828103825260248152602001807f596f7520617265206e6f74207468652073656e646572206f662074686520706181526020017f636b65740000000000000000000000000000000000000000000000000000000081525060400191505060405180910390fd5b3373ffffffffffffffffffffffffffffffffffffffff166108fc60076000848152602001908152602001600020600501549081150290604051600060405180830381858888f193505050501580156108b9573d6000803e3d6000fd5b506000600760008381526020019081526020016000206005018190555060016007600083815260200190815260200160002060060160016101000a81548160ff02191690831515021790555050565b600060149054906101000a900460ff16151561092357600080fd5b6000809054906101000a900473ffffffffffffffffffffffffffffffffffffffff1673ffffffffffffffffffffffffffffffffffffffff163373ffffffffffffffffffffffffffffffffffffffff16141515610a0d576040517f08c379a00000000000000000000000000000000000000000000000000000000081526004018080602001828103825260258152602001807f596f75277265206e6f7420746865206f776e6572206f66207468697320636f6e81526020017f747261637400000000000000000000000000000000000000000000000000000081525060400191505060405180910390fd5b6001600554111515610a87576040517f08c379a000000000000000000000000000000000000000000000000000000000815260040180806020018281038252601e8152602001807f5468652075707065722063616e2774206265206c657373207468616e2031000081525060200191505060405180910390fd5b8060058190555050565b6000809054906101000a900473ffffffffffffffffffffffffffffffffffffffff1673ffffffffffffffffffffffffffffffffffffffff163373ffffffffffffffffffffffffffffffffffffffff16141515610b7b576040517f08c379a00000000000000000000000000000000000000000000000000000000081526004018080602001828103825260258152602001807f596f75277265206e6f7420746865206f776e6572206f66207468697320636f6e81526020017f747261637400000000000000000000000000000000000000000000000000000081525060400191505060405180910390fd5b6001600060146101000a81548160ff021916908315150217905550565b60055481565b6000806007600084815260200190815260200160002060060160009054906101000a900460ff161515610c39576040517f08c379a00000000000000000000000000000000000000000000000000000000081526004018080602001828103825260158152602001807f54686973207061636b6574206e6f7420666f756e64000000000000000000000081525060200191505060405180910390fd5b60006007600085815260200190815260200160002060050154111515610cc7576040517f08c379a00000000000000000000000000000000000000000000000000000000081526004018080602001828103825260188152602001807f54686973207061636b657420697320656d707479206e6f77000000000000000081525060200191505060405180910390fd5b60006007600085815260200190815260200160002060040154111515610d55576040517f08c379a00000000000000000000000000000000000000000000000000000000081526004018080602001828103825260188152602001807f54686973207061636b657420697320656d707479206e6f77000000000000000081525060200191505060405180910390fd5b6007600084815260200190815260200160002060080160003373ffffffffffffffffffffffffffffffffffffffff1673ffffffffffffffffffffffffffffffffffffffff16815260200190815260200160002060009054906101000a900460ff16151515610e2b576040517f08c379a00000000000000000000000000000000000000000000000000000000081526004018080602001828103825260108152602001807f596f75206861766520677261626265640000000000000000000000000000000081525060200191505060405180910390fd5b600073ffffffffffffffffffffffffffffffffffffffff16600160009054906101000a900473ffffffffffffffffffffffffffffffffffffffff1673ffffffffffffffffffffffffffffffffffffffff1614151561119957600260009054906101000a900473ffffffffffffffffffffffffffffffffffffffff1673ffffffffffffffffffffffffffffffffffffffff166347b84f416007600086815260200190815260200160002060000154336040518363ffffffff167c0100000000000000000000000000000000000000000000000000000000028152600401808381526020018273ffffffffffffffffffffffffffffffffffffffff1673ffffffffffffffffffffffffffffffffffffffff16815260200192505050602060405180830381600087803b158015610f5e57600080fd5b505af1158015610f72573d6000803e3d6000fd5b505050506040513d6020811015610f8857600080fd5b8101908080519060200190929190505050151561100d576040517f08c379a00000000000000000000000000000000000000000000000000000000081526004018080602001828103825260198152602001807f596f7520617265206e6f7420696e20746869732067726f75700000000000000081525060200191505060405180910390fd5b600260009054906101000a900473ffffffffffffffffffffffffffffffffffffffff1673ffffffffffffffffffffffffffffffffffffffff16638ed578816007600086815260200190815260200160002060000154336040518363ffffffff167c0100000000000000000000000000000000000000000000000000000000028152600401808381526020018273ffffffffffffffffffffffffffffffffffffffff1673ffffffffffffffffffffffffffffffffffffffff16815260200192505050602060405180830381600087803b1580156110e857600080fd5b505af11580156110fc573d6000803e3d6000fd5b505050506040513d602081101561111257600080fd5b8101908080519060200190929190505050151515611198576040517f08c379a00000000000000000000000000000000000000000000000000000000081526004018080602001828103825260148152602001807f596f752068617665206265656e2062616e6e656400000000000000000000000081525060200191505060405180910390fd5b5b6007600084815260200190815260200160002060050154915060016007600085815260200190815260200160002060040154111561138c5760026007600085815260200190815260200160002060040154600760008681526020019081526020016000206005015481151561120a57fe5b0402905080424485600760008881526020019081526020016000206003015433600760008a815260200190815260200160002060010160009054906101000a900473ffffffffffffffffffffffffffffffffffffffff16604051602001808781526020018681526020018581526020018481526020018373ffffffffffffffffffffffffffffffffffffffff1673ffffffffffffffffffffffffffffffffffffffff166c010000000000000000000000000281526014018273ffffffffffffffffffffffffffffffffffffffff1673ffffffffffffffffffffffffffffffffffffffff166c0100000000000000000000000002815260140196505050505050506040516020818303038152906040526040518082805190602001908083835b60208310151561134e5780518252602082019150602081019050602083039250611329565b6001836020036101000a03801982511681845116808217855250505050505090500191505060405180910390206001900481151561138857fe5b0691505b8160076000858152602001908152602001600020600501600082825403925050819055506001600760008581526020019081526020016000206004016000828254039250508190555060016007600085815260200190815260200160002060080160003373ffffffffffffffffffffffffffffffffffffffff1673ffffffffffffffffffffffffffffffffffffffff16815260200190815260200160002060006101000a81548160ff0219169083151502179055503373ffffffffffffffffffffffffffffffffffffffff166108fc839081150290604051600060405180830381858888f19350505050158015611487573d6000803e3d6000fd5b508260076000858152602001908152602001600020600001547fd1fc5ccffafd52a2e5c32cc9f9dcc2146cbe09666053939224c98a89bbac899e846040518082815260200191505060405180910390a3505050565b60045481565b6000809054906101000a900473ffffffffffffffffffffffffffffffffffffffff1673ffffffffffffffffffffffffffffffffffffffff163373ffffffffffffffffffffffffffffffffffffffff161415156115cc576040517f08c379a00000000000000000000000000000000000000000000000000000000081526004018080602001828103825260258152602001807f596f75277265206e6f7420746865206f776e6572206f66207468697320636f6e81526020017f747261637400000000000000000000000000000000000000000000000000000081525060400191505060405180910390fd5b60008060146101000a81548160ff021916908315150217905550565b6000809054906101000a900473ffffffffffffffffffffffffffffffffffffffff1673ffffffffffffffffffffffffffffffffffffffff163373ffffffffffffffffffffffffffffffffffffffff161415156116d2576040517f08c379a00000000000000000000000000000000000000000000000000000000081526004018080602001828103825260258152602001807f596f75277265206e6f7420746865206f776e6572206f66207468697320636f6e81526020017f747261637400000000000000000000000000000000000000000000000000000081525060400191505060405180910390fd5b80600160006101000a81548173ffffffffffffffffffffffffffffffffffffffff021916908373ffffffffffffffffffffffffffffffffffffffff16021790555080600260006101000a81548173ffffffffffffffffffffffffffffffffffffffff021916908373ffffffffffffffffffffffffffffffffffffffff16021790555050565b600060149054906101000a900460ff16151561177257600080fd5b6000809054906101000a900473ffffffffffffffffffffffffffffffffffffffff1673ffffffffffffffffffffffffffffffffffffffff163373ffffffffffffffffffffffffffffffffffffffff1614151561185c576040517f08c379a00000000000000000000000000000000000000000000000000000000081526004018080602001828103825260258152602001807f596f75277265206e6f7420746865206f776e6572206f66207468697320636f6e81526020017f747261637400000000000000000000000000000000000000000000000000000081525060400191505060405180910390fd5b806000806101000a81548173ffffffffffffffffffffffffffffffffffffffff021916908373ffffffffffffffffffffffffffffffffffffffff16021790555050565b600080606080606080600060149054906101000a900460ff1615156118c357600080fd5b6004543411151515611963576040517f08c379a00000000000000000000000000000000000000000000000000000000081526004018080602001828103825260298152602001807f5468652076616c75652063616e27742062652067726561746572207468616e2081526020017f746865207570706572000000000000000000000000000000000000000000000081525060400191505060405180910390fd5b670de0b6b3a764000034101515156119e3576040517f08c379a000000000000000000000000000000000000000000000000000000000815260040180806020018281038252601f8152602001807f5468652076616c75652063616e2774206c657373207468616e2031204350430081525060200191505060405180910390fd5b60018710151515611a5c576040517f08c379a000000000000000000000000000000000000000000000000000000000815260040180806020018281038252601f8152602001807f54686520636f756e742073686f756c642067726561746572207468616e20310081525060200191505060405180910390fd5b6005548711151515611afc576040517f08c379a00000000000000000000000000000000000000000000000000000000081526004018080602001828103825260248152602001807f54686520636f756e742073686f756c64206c657373207468616e20746865207581526020017f707065720000000000000000000000000000000000000000000000000000000081525060400191505060405180910390fd5b6001600660008282540192505081905550610120604051908101604052808981526020013373ffffffffffffffffffffffffffffffffffffffff168152602001888152602001348152602001888152602001348152602001600115158152602001600015158152602001428152506007600060065481526020019081526020016000206000820151816000015560208201518160010160006101000a81548173ffffffffffffffffffffffffffffffffffffffff021916908373ffffffffffffffffffffffffffffffffffffffff16021790555060408201518160020155606082015181600301556080820151816004015560a0820151816005015560c08201518160060160006101000a81548160ff02191690831515021790555060e08201518160060160016101000a81548160ff021916908315150217905550610100820151816007015590505060009450600073ffffffffffffffffffffffffffffffffffffffff16600160009054906101000a900473ffffffffffffffffffffffffffffffffffffffff1673ffffffffffffffffffffffffffffffffffffffff1614151561216257600260009054906101000a900473ffffffffffffffffffffffffffffffffffffffff1673ffffffffffffffffffffffffffffffffffffffff166347b84f4189336040518363ffffffff167c0100000000000000000000000000000000000000000000000000000000028152600401808381526020018273ffffffffffffffffffffffffffffffffffffffff1673ffffffffffffffffffffffffffffffffffffffff16815260200192505050602060405180830381600087803b158015611d6757600080fd5b505af1158015611d7b573d6000803e3d6000fd5b505050506040513d6020811015611d9157600080fd5b81019080805190602001909291905050501515611e16576040517f08c379a00000000000000000000000000000000000000000000000000000000081526004018080602001828103825260198152602001807f596f7520617265206e6f7420696e20746869732067726f75700000000000000081525060200191505060405180910390fd5b600260009054906101000a900473ffffffffffffffffffffffffffffffffffffffff1673ffffffffffffffffffffffffffffffffffffffff16638ed5788189336040518363ffffffff167c0100000000000000000000000000000000000000000000000000000000028152600401808381526020018273ffffffffffffffffffffffffffffffffffffffff1673ffffffffffffffffffffffffffffffffffffffff16815260200192505050602060405180830381600087803b158015611edb57600080fd5b505af1158015611eef573d6000803e3d6000fd5b505050506040513d6020811015611f0557600080fd5b8101908080519060200190929190505050151515611f8b576040517f08c379a00000000000000000000000000000000000000000000000000000000081526004018080602001828103825260148152602001807f596f752068617665206265656e2062616e6e656400000000000000000000000081525060200191505060405180910390fd5b611f96600654612453565b93506040805190810160405280601281526020017f7b226d657373616765223a7b22736571223a00000000000000000000000000008152509250606060405190810160405280602581526020017f7d2c2274797065223a227265647061636b6574222c2276657273696f6e223a2281526020017f322e31227d00000000000000000000000000000000000000000000000000000081525091506120398385612631565b90506120458183612631565b9050600260009054906101000a900473ffffffffffffffffffffffffffffffffffffffff1673ffffffffffffffffffffffffffffffffffffffff1663aae8b59289836040518363ffffffff167c01000000000000000000000000000000000000000000000000000000000281526004018083815260200180602001828103825283818151815260200191508051906020019080838360005b838110156120f85780820151818401526020810190506120dd565b50505050905090810190601f1680156121255780820380516001836020036101000a031916815260200191505b509350505050600060405180830381600087803b15801561214557600080fd5b505af1158015612159573d6000803e3d6000fd5b50505050600194505b600654887f53422da5e509dddadba3ddf39434b256e81657ded38cb520fe4167571e34019833348b8a604051808573ffffffffffffffffffffffffffffffffffffffff1673ffffffffffffffffffffffffffffffffffffffff1681526020018481526020018381526020018215151515815260200194505050505060405180910390a3505050505092915050565b600060149054906101000a900460ff16151561220b57600080fd5b6000809054906101000a900473ffffffffffffffffffffffffffffffffffffffff1673ffffffffffffffffffffffffffffffffffffffff163373ffffffffffffffffffffffffffffffffffffffff161415156122f5576040517f08c379a00000000000000000000000000000000000000000000000000000000081526004018080602001828103825260258152602001807f596f75277265206e6f7420746865206f776e6572206f66207468697320636f6e81526020017f747261637400000000000000000000000000000000000000000000000000000081525060400191505060405180910390fd5b670de0b6b3a7640000811015151561239b576040517f08c379a000000000000000000000000000000000000000000000000000000000815260040180806020018281038252602b8152602001807f54686520757070657220706572207061636b65742063616e206e6f742062652081526020017f6c657373207468616e203100000000000000000000000000000000000000000081525060400191505060405180910390fd5b69d3c21bcecceda10000008111151515612443576040517f08c379a00000000000000000000000000000000000000000000000000000000081526004018080602001828103825260368152602001807f54686520757070657220706572207061636b65742063616e206e6f742062652081526020017f67726561746572207468616e2031206d696c6c696f6e0000000000000000000081525060400191505060405180910390fd5b8060048190555050565b60035481565b6060600060606000806060600060649550856040519080825280601f01601f1916602001820160405280156124975781602001602082028038833980820191505090505b509450600093505b60008814151561253657600a888115156124b557fe5b069250600a888115156124c457fe5b049750826030017f010000000000000000000000000000000000000000000000000000000000000002858580600101965081518110151561250157fe5b9060200101907effffffffffffffffffffffffffffffffffffffffffffffffffffffffffffff1916908160001a90535061249f565b600184016040519080825280601f01601f19166020018201604052801561256c5781602001602082028038833980820191505090505b509150600090505b8381111515612623578481850381518110151561258d57fe5b9060200101517f010000000000000000000000000000000000000000000000000000000000000090047f01000000000000000000000000000000000000000000000000000000000000000282828151811015156125e657fe5b9060200101907effffffffffffffffffffffffffffffffffffffffffffffffffffffffffffff1916908160001a9053508080600101915050612574565b819650505050505050919050565b606080606080606060008088955087945084518651016040519080825280601f01601f1916602001820160405280156126795781602001602082028038833980820191505090505b50935083925060009150600090505b855181101561273b57858181518110151561269f57fe5b9060200101517f010000000000000000000000000000000000000000000000000000000000000090047f01000000000000000000000000000000000000000000000000000000000000000283838060010194508151811015156126fe57fe5b9060200101907effffffffffffffffffffffffffffffffffffffffffffffffffffffffffffff1916908160001a9053508080600101915050612688565b600090505b84518110156127f357848181518110151561275757fe5b9060200101517f010000000000000000000000000000000000000000000000000000000000000090047f01000000000000000000000000000000000000000000000000000000000000000283838060010194508151811015156127b657fe5b9060200101907effffffffffffffffffffffffffffffffffffffffffffffffffffffffffffff1916908160001a9053508080600101915050612740565b829650505050505050929150505600a165627a7a72305820399c947eaca7e9fc77b2a91661ff0b53b7c8a3c73086f17f9073676a08a7d8f60029",
  "source": "pragma solidity ^0.4.24;\n\nimport \"./interfaces/IGroupChat.sol\";\nimport \"./lib/safeMath.sol\";\nimport \"./interfaces/IRedPacket.sol\";\n\ncontract RedPacket is IRedPacket {\n    using SafeMath for uint;\n    using SafeMath for uint256;\n    address owner; // owner has permissions to modify parameters\n    bool public enabled = true; // if upgrade contract, then the old contract should be disabled\n    \n    address groupChatAddress;\n    IGroupChat groupchatInstance;\n\n    uint256 public period = 1 days;\n    uint256 public upper = 10000 ether; // The upper per packet\n    uint public sub_packet_cnt_upper = 100;\n\n    struct Packet {\n        uint group_id;\n        address sender;\n        uint count;\n        uint256 amount;\n        uint remain_cnt;\n        uint256 remains; // remaining fund\n        bool existed;\n        bool refunded;\n        uint256 created_at;\n        mapping(address => bool) grabbed; // every address can only grab one packet\n    }\n\n    uint packet_seq = 0;\n\n    mapping(uint => Packet) internal packets;\n    \n    modifier onlyOwner() {\n        require(msg.sender == owner, \"You're not the owner of this contract\");\n        _;\n    }\n\n    modifier onlyEnabled() {\n        require(enabled);\n        _;\n    }\n\n    constructor() public {\n        owner = msg.sender;\n    }\n\n    function strConcat(string _a, string _b) internal pure returns (string){\n        bytes memory a = bytes(_a);\n        bytes memory b = bytes(_b);\n        string memory ab = new string(a.length + b.length);\n        bytes memory aAB = bytes(ab);\n        uint k = 0;\n        for (uint i = 0; i < a.length; i++) aAB[k++] = a[i];\n        for (i = 0; i < b.length; i++) aAB[k++] = b[i];\n        return string(aAB);\n    }\n\n    function uintToString(uint v) internal pure returns (string str) {\n        uint maxlength = 100;\n        bytes memory reversed = new bytes(maxlength);\n        uint i = 0;\n        while (v != 0) {\n            uint remainder = v % 10;\n            v = v / 10;\n            reversed[i++] = byte(48 + remainder);\n        }\n        bytes memory s = new bytes(i + 1);\n        for (uint j = 0; j <= i; j++) {\n            s[j] = reversed[i - j];\n        }\n        str = string(s);\n    }\n\n    function setGroupChat(address groupchat) public onlyOwner {\n        groupChatAddress = groupchat;\n        groupchatInstance = IGroupChat(groupchat);   \n    }\n\n    // owner can enable and disable rnode contract\n    function enableContract() public onlyOwner {\n        enabled = true;\n    }\n\n    function disableContract() public onlyOwner {\n        enabled = false;\n    }\n\n    function setPeriod(uint256 new_period) public onlyEnabled onlyOwner {\n        require(new_period > 1 minutes, \"The period should greater than 1 minute\");\n        period = new_period;\n    }\n\n    function setUpper(uint256 new_upper) public onlyEnabled onlyOwner {\n        require(new_upper >= 1 ether, \"The upper per packet can not be less than 1\");\n        require(new_upper <= 1000000 ether, \"The upper per packet can not be greater than 1 million\");\n        upper = new_upper;\n    }\n\n    function setSubPacketCntUpper(uint new_cnt) public onlyEnabled onlyOwner {\n        require(sub_packet_cnt_upper > 1, \"The upper can't be less than 1\");\n        sub_packet_cnt_upper = new_cnt;\n    }\n\n    /**\n     * Create a red packet. Specify the group_id and the count of sub red packet.\n     * This function will send an application message in the group chat.\n     * Emits {CreateRedPacket} event\n     * Returns packet ID.\n     */\n    function createRedPacket(uint group_id, uint count) external payable onlyEnabled returns (uint) {\n        require(msg.value <= upper, \"The value can't be greater than the upper\");\n        require(msg.value >= 1 ether, \"The value can't less than 1 CPC\");\n        require(count >= 1, \"The count should greater than 1\");\n        require(count <= sub_packet_cnt_upper, \"The count should less than the upper\");\n        packet_seq += 1;\n        packets[packet_seq] = Packet({\n            group_id: group_id,\n            sender: msg.sender,\n            count: count,\n            amount: msg.value,\n            remain_cnt: count,\n            remains: msg.value,\n            existed: true,\n            refunded: false,\n            created_at: block.timestamp\n        });\n        bool sent = false;\n        if (groupChatAddress != address(0x0)) {\n            require(groupchatInstance.has(group_id, msg.sender), \"You are not in this group\");\n            require(!groupchatInstance.isBanned(group_id, msg.sender), \"You have been banned\");\n            // message\n            string memory _id = uintToString(packet_seq);\n            string memory msg0 = \"{\\\"message\\\":{\\\"seq\\\":\";\n            string memory msg1 = \"},\\\"type\\\":\\\"redpacket\\\",\\\"version\\\":\\\"2.1\\\"}\";\n            string memory message = strConcat(msg0, _id);\n            message = strConcat(message, msg1);\n            groupchatInstance.sendMessage(group_id, message);\n            sent = true;\n        }\n        emit CreateRedPacket(group_id, packet_seq, msg.sender, msg.value, count, sent);\n    }\n\n    /**\n     * Grap a red packet.\n     * Emits {GrapRedPacket} event\n     */\n    function grapRedPacket(uint packet_id) external {\n        require(packets[packet_id].existed, \"This packet not found\");\n        require(packets[packet_id].remains > 0, \"This packet is empty now\");\n        require(packets[packet_id].remain_cnt > 0, \"This packet is empty now\");\n        require(!packets[packet_id].grabbed[msg.sender], \"You have grabbed\");\n        if (groupChatAddress != address(0x0)) {\n            require(groupchatInstance.has(packets[packet_id].group_id, msg.sender), \"You are not in this group\");\n            require(!groupchatInstance.isBanned(packets[packet_id].group_id, msg.sender), \"You have been banned\");\n        }\n        uint256 random = packets[packet_id].remains;\n        if (packets[packet_id].remain_cnt > 1) {\n            // range: (M/N * 2)M N \n            uint256 range = packets[packet_id].remains / packets[packet_id].remain_cnt * 2;\n            random = uint256(keccak256(abi.encodePacked(block.timestamp, block.difficulty, packet_id, \n                packets[packet_id].amount, msg.sender, packets[packet_id].sender))) % range;\n        }\n        packets[packet_id].remains -= random;\n        packets[packet_id].remain_cnt -= 1;\n        packets[packet_id].grabbed[msg.sender] = true;\n        msg.sender.transfer(random);\n        emit GrapRedPacket(packets[packet_id].group_id, packet_id, random);\n    }\n\n    /**\n     * Refund after specify period if the red packet still remain.\n     * Emits {Refund} event\n     */\n    function refund(uint packet_id) external {\n        require(packets[packet_id].existed, \"This packet not found\");\n        require(packets[packet_id].remains > 0, \"This packet is empty now\");\n        require(packets[packet_id].remain_cnt > 0, \"This packet is empty now\");\n        require(packets[packet_id].created_at + period <= block.timestamp, \"Your red packet is still locked\");\n        require(packets[packet_id].sender == msg.sender, \"You are not the sender of the packet\");\n        msg.sender.transfer(packets[packet_id].remains);\n        packets[packet_id].remains = 0;\n        packets[packet_id].refunded = true;\n    }\n\n    /**\n     * Change the owner of the contract. If the address is a contract, the contract should be IAdmin.\n     */\n    function changeOwner(address to) external onlyEnabled onlyOwner {\n        owner = to;\n    }\n}\n",
  "sourcePath": "/Users/liaojinlong/Workspace/CPChain/cpchain-dapps-red-packet/contracts/RedPacket.sol",
  "compiler": {
    "name": "solc",
    "version": "0.4.25+commit.59dbf8f1.Linux.g++"
  },
  "schemaVersion": "3.3.4",
  "updatedAt": "2021-12-13T10:06:02.554Z",
  "devdoc": {
    "methods": {}
  },
  "userdoc": {
    "methods": {
      "changeOwner(address)": {
        "notice": "Change the owner of the contract. If the address is a contract, the contract should be IAdmin."
      },
      "createRedPacket(uint256,uint256)": {
        "notice": "Create a red packet. Specify the group_id and the count of sub red packet. This function will send an application message in the group chat. Emits {CreateRedPacket} event Returns packet ID."
      },
      "grapRedPacket(uint256)": {
        "notice": "Grap a red packet. Emits {GrapRedPacket} event"
      },
      "refund(uint256)": {
        "notice": "Refund after specify period if the red packet still remain. Emits {Refund} event"
      }
    }
  }
}