{
  "contractName": "RedPacket",
  "abi": [
    {
      "constant": true,
      "inputs": [],
      "name": "enabled",
      "outputs": [
        {
          "name": "",
          "type": "bool"
        }
      ],
      "payable": false,
      "stateMutability": "view",
      "type": "function"
    },
    {
      "constant": true,
      "inputs": [],
      "name": "sub_packet_cnt_upper",
      "outputs": [
        {
          "name": "",
          "type": "uint256"
        }
      ],
      "payable": false,
      "stateMutability": "view",
      "type": "function"
    },
    {
      "constant": true,
      "inputs": [],
      "name": "upper",
      "outputs": [
        {
          "name": "",
          "type": "uint256"
        }
      ],
      "payable": false,
      "stateMutability": "view",
      "type": "function"
    },
    {
      "constant": true,
      "inputs": [],
      "name": "period",
      "outputs": [
        {
          "name": "",
          "type": "uint256"
        }
      ],
      "payable": false,
      "stateMutability": "view",
      "type": "function"
    },
    {
      "inputs": [],
      "payable": false,
      "stateMutability": "nonpayable",
      "type": "constructor"
    },
    {
      "anonymous": false,
      "inputs": [
        {
          "indexed": true,
          "name": "group_id",
          "type": "uint256"
        },
        {
          "indexed": true,
          "name": "packet_id",
          "type": "uint256"
        },
        {
          "indexed": false,
          "name": "sender",
          "type": "address"
        },
        {
          "indexed": false,
          "name": "bless",
          "type": "string"
        },
        {
          "indexed": false,
          "name": "amount",
          "type": "uint256"
        },
        {
          "indexed": false,
          "name": "count",
          "type": "uint256"
        },
        {
          "indexed": false,
          "name": "msg_sent",
          "type": "bool"
        }
      ],
      "name": "CreateRedPacket",
      "type": "event"
    },
    {
      "anonymous": false,
      "inputs": [
        {
          "indexed": true,
          "name": "group_id",
          "type": "uint256"
        },
        {
          "indexed": true,
          "name": "packet_id",
          "type": "uint256"
        },
        {
          "indexed": false,
          "name": "receiver",
          "type": "address"
        },
        {
          "indexed": false,
          "name": "amount",
          "type": "uint256"
        }
      ],
      "name": "GrabRedPacket",
      "type": "event"
    },
    {
      "anonymous": false,
      "inputs": [
        {
          "indexed": true,
          "name": "packet_id",
          "type": "uint256"
        },
        {
          "indexed": false,
          "name": "remains",
          "type": "uint256"
        }
      ],
      "name": "Refund",
      "type": "event"
    },
    {
      "constant": true,
      "inputs": [
        {
          "name": "seq",
          "type": "uint256"
        }
      ],
      "name": "getMessageWithSeq",
      "outputs": [
        {
          "name": "",
          "type": "string"
        }
      ],
      "payable": false,
      "stateMutability": "pure",
      "type": "function"
    },
    {
      "constant": false,
      "inputs": [
        {
          "name": "groupchat",
          "type": "address"
        }
      ],
      "name": "setGroupChat",
      "outputs": [],
      "payable": false,
      "stateMutability": "nonpayable",
      "type": "function"
    },
    {
      "constant": false,
      "inputs": [],
      "name": "enableContract",
      "outputs": [],
      "payable": false,
      "stateMutability": "nonpayable",
      "type": "function"
    },
    {
      "constant": false,
      "inputs": [],
      "name": "disableContract",
      "outputs": [],
      "payable": false,
      "stateMutability": "nonpayable",
      "type": "function"
    },
    {
      "constant": false,
      "inputs": [
        {
          "name": "new_period",
          "type": "uint256"
        }
      ],
      "name": "setPeriod",
      "outputs": [],
      "payable": false,
      "stateMutability": "nonpayable",
      "type": "function"
    },
    {
      "constant": false,
      "inputs": [
        {
          "name": "new_upper",
          "type": "uint256"
        }
      ],
      "name": "setUpper",
      "outputs": [],
      "payable": false,
      "stateMutability": "nonpayable",
      "type": "function"
    },
    {
      "constant": false,
      "inputs": [
        {
          "name": "new_cnt",
          "type": "uint256"
        }
      ],
      "name": "setSubPacketCntUpper",
      "outputs": [],
      "payable": false,
      "stateMutability": "nonpayable",
      "type": "function"
    },
    {
      "constant": false,
      "inputs": [
        {
          "name": "group_id",
          "type": "uint256"
        },
        {
          "name": "count",
          "type": "uint256"
        },
        {
          "name": "bless",
          "type": "string"
        }
      ],
      "name": "createRedPacket",
      "outputs": [
        {
          "name": "",
          "type": "uint256"
        }
      ],
      "payable": true,
      "stateMutability": "payable",
      "type": "function"
    },
    {
      "constant": false,
      "inputs": [
        {
          "name": "packet_id",
          "type": "uint256"
        }
      ],
      "name": "grabRedPacket",
      "outputs": [],
      "payable": false,
      "stateMutability": "nonpayable",
      "type": "function"
    },
    {
      "constant": false,
      "inputs": [
        {
          "name": "packet_id",
          "type": "uint256"
        }
      ],
      "name": "refund",
      "outputs": [],
      "payable": false,
      "stateMutability": "nonpayable",
      "type": "function"
    },
    {
      "constant": false,
      "inputs": [
        {
          "name": "to",
          "type": "address"
        }
      ],
      "name": "changeOwner",
      "outputs": [],
      "payable": false,
      "stateMutability": "nonpayable",
      "type": "function"
    }
  ],
  "bytecode": "0x60806040526001600060146101000a81548160ff0219169083151502179055506201518060035569021e19e0c9bab24000006004556064600555600060065534801561004a57600080fd5b50336000806101000a81548173ffffffffffffffffffffffffffffffffffffffff021916908373ffffffffffffffffffffffffffffffffffffffff160217905550612a7c8061009a6000396000f3006080604052600436106100db576000357c0100000000000000000000000000000000000000000000000000000000900463ffffffff1680630f3a9f65146100e0578063238dafe01461010d578063278ecde11461013c5780633560d99d14610169578063367edd32146101965780634150bca0146101ad5780634bdf4a6d146101d85780637b423f3014610203578063894ba83314610259578063976e088714610270578063a6f9dae1146102b3578063a8b8d7ca146102f6578063c40a24fe14610323578063e4cf4d4d146103c9578063ef78d4fd146103f6575b600080fd5b3480156100ec57600080fd5b5061010b60048036038101908080359060200190929190505050610421565b005b34801561011957600080fd5b506101226105ce565b604051808215151515815260200191505060405180910390f35b34801561014857600080fd5b50610167600480360381019080803590602001909291905050506105e1565b005b34801561017557600080fd5b50610194600480360381019080803590602001909291905050506109d1565b005b3480156101a257600080fd5b506101ab610b5a565b005b3480156101b957600080fd5b506101c2610c61565b6040518082815260200191505060405180910390f35b3480156101e457600080fd5b506101ed610c67565b6040518082815260200191505060405180910390f35b6102436004803603810190808035906020019092919080359060200190929190803590602001908201803590602001919091929391929390505050610c6d565b6040518082815260200191505060405180910390f35b34801561026557600080fd5b5061026e611623565b005b34801561027c57600080fd5b506102b1600480360381019080803573ffffffffffffffffffffffffffffffffffffffff169060200190929190505050611729565b005b3480156102bf57600080fd5b506102f4600480360381019080803573ffffffffffffffffffffffffffffffffffffffff169060200190929190505050611898565b005b34801561030257600080fd5b50610321600480360381019080803590602001909291905050506119e0565b005b34801561032f57600080fd5b5061034e60048036038101908080359060200190929190505050612352565b6040518080602001828103825283818151815260200191508051906020019080838360005b8381101561038e578082015181840152602081019050610373565b50505050905090810190601f1680156103bb5780820380516001836020036101000a031916815260200191505b509250505060405180910390f35b3480156103d557600080fd5b506103f460048036038101908080359060200190929190505050612420565b005b34801561040257600080fd5b5061040b61267d565b6040518082815260200191505060405180910390f35b600060149054906101000a900460ff16151561043c57600080fd5b6000809054906101000a900473ffffffffffffffffffffffffffffffffffffffff1673ffffffffffffffffffffffffffffffffffffffff163373ffffffffffffffffffffffffffffffffffffffff16141515610526576040517f08c379a00000000000000000000000000000000000000000000000000000000081526004018080602001828103825260258152602001807f596f75277265206e6f7420746865206f776e6572206f66207468697320636f6e81526020017f747261637400000000000000000000000000000000000000000000000000000081525060400191505060405180910390fd5b6001811115156105c4576040517f08c379a00000000000000000000000000000000000000000000000000000000081526004018080602001828103825260278152602001807f54686520706572696f642073686f756c642067726561746572207468616e203181526020017f207365636f6e640000000000000000000000000000000000000000000000000081525060400191505060405180910390fd5b8060038190555050565b600060149054906101000a900460ff1681565b6007600082815260200190815260200160002060060160009054906101000a900460ff161515610679576040517f08c379a00000000000000000000000000000000000000000000000000000000081526004018080602001828103825260158152602001807f54686973207061636b6574206e6f7420666f756e64000000000000000000000081525060200191505060405180910390fd5b60006007600083815260200190815260200160002060050154111515610707576040517f08c379a00000000000000000000000000000000000000000000000000000000081526004018080602001828103825260188152602001807f54686973207061636b657420697320656d707479206e6f77000000000000000081525060200191505060405180910390fd5b60006007600083815260200190815260200160002060040154111515610795576040517f08c379a00000000000000000000000000000000000000000000000000000000081526004018080602001828103825260188152602001807f54686973207061636b657420697320656d707479206e6f77000000000000000081525060200191505060405180910390fd5b4260035460076000848152602001908152602001600020600701540111151515610827576040517f08c379a000000000000000000000000000000000000000000000000000000000815260040180806020018281038252601f8152602001807f596f757220726564207061636b6574206973207374696c6c206c6f636b65640081525060200191505060405180910390fd5b3373ffffffffffffffffffffffffffffffffffffffff166007600083815260200190815260200160002060010160009054906101000a900473ffffffffffffffffffffffffffffffffffffffff1673ffffffffffffffffffffffffffffffffffffffff16141515610926576040517f08c379a00000000000000000000000000000000000000000000000000000000081526004018080602001828103825260248152602001807f596f7520617265206e6f74207468652073656e646572206f662074686520706181526020017f636b65740000000000000000000000000000000000000000000000000000000081525060400191505060405180910390fd5b3373ffffffffffffffffffffffffffffffffffffffff166108fc60076000848152602001908152602001600020600501549081150290604051600060405180830381858888f19350505050158015610982573d6000803e3d6000fd5b506000600760008381526020019081526020016000206005018190555060016007600083815260200190815260200160002060060160016101000a81548160ff02191690831515021790555050565b600060149054906101000a900460ff1615156109ec57600080fd5b6000809054906101000a900473ffffffffffffffffffffffffffffffffffffffff1673ffffffffffffffffffffffffffffffffffffffff163373ffffffffffffffffffffffffffffffffffffffff16141515610ad6576040517f08c379a00000000000000000000000000000000000000000000000000000000081526004018080602001828103825260258152602001807f596f75277265206e6f7420746865206f776e6572206f66207468697320636f6e81526020017f747261637400000000000000000000000000000000000000000000000000000081525060400191505060405180910390fd5b6001600554111515610b50576040517f08c379a000000000000000000000000000000000000000000000000000000000815260040180806020018281038252601e8152602001807f5468652075707065722063616e2774206265206c657373207468616e2031000081525060200191505060405180910390fd5b8060058190555050565b6000809054906101000a900473ffffffffffffffffffffffffffffffffffffffff1673ffffffffffffffffffffffffffffffffffffffff163373ffffffffffffffffffffffffffffffffffffffff16141515610c44576040517f08c379a00000000000000000000000000000000000000000000000000000000081526004018080602001828103825260258152602001807f596f75277265206e6f7420746865206f776e6572206f66207468697320636f6e81526020017f747261637400000000000000000000000000000000000000000000000000000081525060400191505060405180910390fd5b6001600060146101000a81548160ff021916908315150217905550565b60055481565b60045481565b6000806060600060149054906101000a900460ff161515610c8d57600080fd5b6004543411151515610d2d576040517f08c379a00000000000000000000000000000000000000000000000000000000081526004018080602001828103825260298152602001807f5468652076616c75652063616e27742062652067726561746572207468616e2081526020017f746865207570706572000000000000000000000000000000000000000000000081525060400191505060405180910390fd5b670de0b6b3a76400003410151515610dad576040517f08c379a000000000000000000000000000000000000000000000000000000000815260040180806020018281038252601f8152602001807f5468652076616c75652063616e2774206c657373207468616e2031204350430081525060200191505060405180910390fd5b60018610151515610e26576040517f08c379a000000000000000000000000000000000000000000000000000000000815260040180806020018281038252601f8152602001807f54686520636f756e742073686f756c642067726561746572207468616e20310081525060200191505060405180910390fd5b6005548611151515610ec6576040517f08c379a00000000000000000000000000000000000000000000000000000000081526004018080602001828103825260248152602001807f54686520636f756e742073686f756c64206c657373207468616e20746865207581526020017f707065720000000000000000000000000000000000000000000000000000000081525060400191505060405180910390fd5b606485859050101515610f67576040517f08c379a00000000000000000000000000000000000000000000000000000000081526004018080602001828103825260248152602001807f4c656e677468206f6620626c6573732073686f756c64206c657373207468616e81526020017f203130300000000000000000000000000000000000000000000000000000000081525060400191505060405180910390fd5b6001600660008282540192505081905550610140604051908101604052808881526020013373ffffffffffffffffffffffffffffffffffffffff16815260200187815260200134815260200187815260200134815260200160011515815260200160001515815260200142815260200186868080601f0160208091040260200160405190810160405280939291908181526020018383808284378201915050505050508152506007600060065481526020019081526020016000206000820151816000015560208201518160010160006101000a81548173ffffffffffffffffffffffffffffffffffffffff021916908373ffffffffffffffffffffffffffffffffffffffff16021790555060408201518160020155606082015181600301556080820151816004015560a0820151816005015560c08201518160060160006101000a81548160ff02191690831515021790555060e08201518160060160016101000a81548160ff02191690831515021790555061010082015181600701556101208201518160080190805190602001906111039291906129ab565b5090505060009150600073ffffffffffffffffffffffffffffffffffffffff16600160009054906101000a900473ffffffffffffffffffffffffffffffffffffffff1673ffffffffffffffffffffffffffffffffffffffff1614151561157457600260009054906101000a900473ffffffffffffffffffffffffffffffffffffffff1673ffffffffffffffffffffffffffffffffffffffff166347b84f4188336040518363ffffffff167c0100000000000000000000000000000000000000000000000000000000028152600401808381526020018273ffffffffffffffffffffffffffffffffffffffff1673ffffffffffffffffffffffffffffffffffffffff16815260200192505050602060405180830381600087803b15801561122857600080fd5b505af115801561123c573d6000803e3d6000fd5b505050506040513d602081101561125257600080fd5b810190808051906020019092919050505015156112d7576040517f08c379a00000000000000000000000000000000000000000000000000000000081526004018080602001828103825260198152602001807f596f7520617265206e6f7420696e20746869732067726f75700000000000000081525060200191505060405180910390fd5b600260009054906101000a900473ffffffffffffffffffffffffffffffffffffffff1673ffffffffffffffffffffffffffffffffffffffff16638ed5788188336040518363ffffffff167c0100000000000000000000000000000000000000000000000000000000028152600401808381526020018273ffffffffffffffffffffffffffffffffffffffff1673ffffffffffffffffffffffffffffffffffffffff16815260200192505050602060405180830381600087803b15801561139c57600080fd5b505af11580156113b0573d6000803e3d6000fd5b505050506040513d60208110156113c657600080fd5b810190808051906020019092919050505015151561144c576040517f08c379a00000000000000000000000000000000000000000000000000000000081526004018080602001828103825260148152602001807f596f752068617665206265656e2062616e6e656400000000000000000000000081525060200191505060405180910390fd5b611457600654612352565b9050600260009054906101000a900473ffffffffffffffffffffffffffffffffffffffff1673ffffffffffffffffffffffffffffffffffffffff1663aae8b59288836040518363ffffffff167c01000000000000000000000000000000000000000000000000000000000281526004018083815260200180602001828103825283818151815260200191508051906020019080838360005b8381101561150a5780820151818401526020810190506114ef565b50505050905090810190601f1680156115375780820380516001836020036101000a031916815260200191505b509350505050600060405180830381600087803b15801561155757600080fd5b505af115801561156b573d6000803e3d6000fd5b50505050600191505b600654877f9e8055255c297d51c9eca9be6d5df6889db6cde54274f523399fad861b13c1ea338888348c89604051808773ffffffffffffffffffffffffffffffffffffffff1673ffffffffffffffffffffffffffffffffffffffff16815260200180602001858152602001848152602001831515151581526020018281038252878782818152602001925080828437820191505097505050505050505060405180910390a35050949350505050565b6000809054906101000a900473ffffffffffffffffffffffffffffffffffffffff1673ffffffffffffffffffffffffffffffffffffffff163373ffffffffffffffffffffffffffffffffffffffff1614151561170d576040517f08c379a00000000000000000000000000000000000000000000000000000000081526004018080602001828103825260258152602001807f596f75277265206e6f7420746865206f776e6572206f66207468697320636f6e81526020017f747261637400000000000000000000000000000000000000000000000000000081525060400191505060405180910390fd5b60008060146101000a81548160ff021916908315150217905550565b6000809054906101000a900473ffffffffffffffffffffffffffffffffffffffff1673ffffffffffffffffffffffffffffffffffffffff163373ffffffffffffffffffffffffffffffffffffffff16141515611813576040517f08c379a00000000000000000000000000000000000000000000000000000000081526004018080602001828103825260258152602001807f596f75277265206e6f7420746865206f776e6572206f66207468697320636f6e81526020017f747261637400000000000000000000000000000000000000000000000000000081525060400191505060405180910390fd5b80600160006101000a81548173ffffffffffffffffffffffffffffffffffffffff021916908373ffffffffffffffffffffffffffffffffffffffff16021790555080600260006101000a81548173ffffffffffffffffffffffffffffffffffffffff021916908373ffffffffffffffffffffffffffffffffffffffff16021790555050565b600060149054906101000a900460ff1615156118b357600080fd5b6000809054906101000a900473ffffffffffffffffffffffffffffffffffffffff1673ffffffffffffffffffffffffffffffffffffffff163373ffffffffffffffffffffffffffffffffffffffff1614151561199d576040517f08c379a00000000000000000000000000000000000000000000000000000000081526004018080602001828103825260258152602001807f596f75277265206e6f7420746865206f776e6572206f66207468697320636f6e81526020017f747261637400000000000000000000000000000000000000000000000000000081525060400191505060405180910390fd5b806000806101000a81548173ffffffffffffffffffffffffffffffffffffffff021916908373ffffffffffffffffffffffffffffffffffffffff16021790555050565b6000806007600084815260200190815260200160002060060160009054906101000a900460ff161515611a7b576040517f08c379a00000000000000000000000000000000000000000000000000000000081526004018080602001828103825260158152602001807f54686973207061636b6574206e6f7420666f756e64000000000000000000000081525060200191505060405180910390fd5b60006007600085815260200190815260200160002060050154111515611b09576040517f08c379a00000000000000000000000000000000000000000000000000000000081526004018080602001828103825260188152602001807f54686973207061636b657420697320656d707479206e6f77000000000000000081525060200191505060405180910390fd5b60006007600085815260200190815260200160002060040154111515611b97576040517f08c379a00000000000000000000000000000000000000000000000000000000081526004018080602001828103825260188152602001807f54686973207061636b657420697320656d707479206e6f77000000000000000081525060200191505060405180910390fd5b6007600084815260200190815260200160002060090160003373ffffffffffffffffffffffffffffffffffffffff1673ffffffffffffffffffffffffffffffffffffffff16815260200190815260200160002060009054906101000a900460ff16151515611c6d576040517f08c379a00000000000000000000000000000000000000000000000000000000081526004018080602001828103825260108152602001807f596f75206861766520677261626265640000000000000000000000000000000081525060200191505060405180910390fd5b600073ffffffffffffffffffffffffffffffffffffffff16600160009054906101000a900473ffffffffffffffffffffffffffffffffffffffff1673ffffffffffffffffffffffffffffffffffffffff16141515611fdb57600260009054906101000a900473ffffffffffffffffffffffffffffffffffffffff1673ffffffffffffffffffffffffffffffffffffffff166347b84f416007600086815260200190815260200160002060000154336040518363ffffffff167c0100000000000000000000000000000000000000000000000000000000028152600401808381526020018273ffffffffffffffffffffffffffffffffffffffff1673ffffffffffffffffffffffffffffffffffffffff16815260200192505050602060405180830381600087803b158015611da057600080fd5b505af1158015611db4573d6000803e3d6000fd5b505050506040513d6020811015611dca57600080fd5b81019080805190602001909291905050501515611e4f576040517f08c379a00000000000000000000000000000000000000000000000000000000081526004018080602001828103825260198152602001807f596f7520617265206e6f7420696e20746869732067726f75700000000000000081525060200191505060405180910390fd5b600260009054906101000a900473ffffffffffffffffffffffffffffffffffffffff1673ffffffffffffffffffffffffffffffffffffffff16638ed578816007600086815260200190815260200160002060000154336040518363ffffffff167c0100000000000000000000000000000000000000000000000000000000028152600401808381526020018273ffffffffffffffffffffffffffffffffffffffff1673ffffffffffffffffffffffffffffffffffffffff16815260200192505050602060405180830381600087803b158015611f2a57600080fd5b505af1158015611f3e573d6000803e3d6000fd5b505050506040513d6020811015611f5457600080fd5b8101908080519060200190929190505050151515611fda576040517f08c379a00000000000000000000000000000000000000000000000000000000081526004018080602001828103825260148152602001807f596f752068617665206265656e2062616e6e656400000000000000000000000081525060200191505060405180910390fd5b5b600760008481526020019081526020016000206005015491506001600760008581526020019081526020016000206004015411156121ce5760026007600085815260200190815260200160002060040154600760008681526020019081526020016000206005015481151561204c57fe5b0402905080424485600760008881526020019081526020016000206003015433600760008a815260200190815260200160002060010160009054906101000a900473ffffffffffffffffffffffffffffffffffffffff16604051602001808781526020018681526020018581526020018481526020018373ffffffffffffffffffffffffffffffffffffffff1673ffffffffffffffffffffffffffffffffffffffff166c010000000000000000000000000281526014018273ffffffffffffffffffffffffffffffffffffffff1673ffffffffffffffffffffffffffffffffffffffff166c0100000000000000000000000002815260140196505050505050506040516020818303038152906040526040518082805190602001908083835b602083101515612190578051825260208201915060208101905060208303925061216b565b6001836020036101000a0380198251168184511680821785525050505050509050019150506040518091039020600190048115156121ca57fe5b0691505b8160076000858152602001908152602001600020600501600082825403925050819055506001600760008581526020019081526020016000206004016000828254039250508190555060016007600085815260200190815260200160002060090160003373ffffffffffffffffffffffffffffffffffffffff1673ffffffffffffffffffffffffffffffffffffffff16815260200190815260200160002060006101000a81548160ff0219169083151502179055503373ffffffffffffffffffffffffffffffffffffffff166108fc839081150290604051600060405180830381858888f193505050501580156122c9573d6000803e3d6000fd5b508260076000858152602001908152602001600020600001547f6d68b8c2fc967eafdd2c7da0f645e0b9c12231613940e967ae887141f5d59c313385604051808373ffffffffffffffffffffffffffffffffffffffff1673ffffffffffffffffffffffffffffffffffffffff1681526020018281526020019250505060405180910390a3505050565b606080606080606061236386612683565b93506040805190810160405280601281526020017f7b226d657373616765223a7b22736571223a00000000000000000000000000008152509250606060405190810160405280602581526020017f7d2c2274797065223a227265647061636b6574222c2276657273696f6e223a2281526020017f322e31227d000000000000000000000000000000000000000000000000000000815250915061240683856127da565b905061241281836127da565b905080945050505050919050565b600060149054906101000a900460ff16151561243b57600080fd5b6000809054906101000a900473ffffffffffffffffffffffffffffffffffffffff1673ffffffffffffffffffffffffffffffffffffffff163373ffffffffffffffffffffffffffffffffffffffff16141515612525576040517f08c379a00000000000000000000000000000000000000000000000000000000081526004018080602001828103825260258152602001807f596f75277265206e6f7420746865206f776e6572206f66207468697320636f6e81526020017f747261637400000000000000000000000000000000000000000000000000000081525060400191505060405180910390fd5b670de0b6b3a764000081101515156125cb576040517f08c379a000000000000000000000000000000000000000000000000000000000815260040180806020018281038252602b8152602001807f54686520757070657220706572207061636b65742063616e206e6f742062652081526020017f6c657373207468616e203100000000000000000000000000000000000000000081525060400191505060405180910390fd5b69d3c21bcecceda10000008111151515612673576040517f08c379a00000000000000000000000000000000000000000000000000000000081526004018080602001828103825260368152602001807f54686520757070657220706572207061636b65742063616e206e6f742062652081526020017f67726561746572207468616e2031206d696c6c696f6e0000000000000000000081525060400191505060405180910390fd5b8060048190555050565b60035481565b606060008060606000808614156126d1576040805190810160405280600181526020017f300000000000000000000000000000000000000000000000000000000000000081525094506127d1565b8593505b6000841415156126fb578280600101935050600a848115156126f357fe5b0493506126d5565b826040519080825280601f01601f19166020018201604052801561272e5781602001602082028038833980820191505090505b5091506001830390505b6000861415156127cd57600a8681151561274e57fe5b066030017f01000000000000000000000000000000000000000000000000000000000000000282828060019003935081518110151561278957fe5b9060200101907effffffffffffffffffffffffffffffffffffffffffffffffffffffffffffff1916908160001a905350600a868115156127c557fe5b049550612738565b8194505b50505050919050565b606080606080606060008088955087945084518651016040519080825280601f01601f1916602001820160405280156128225781602001602082028038833980820191505090505b50935083925060009150600090505b85518110156128e457858181518110151561284857fe5b9060200101517f010000000000000000000000000000000000000000000000000000000000000090047f01000000000000000000000000000000000000000000000000000000000000000283838060010194508151811015156128a757fe5b9060200101907effffffffffffffffffffffffffffffffffffffffffffffffffffffffffffff1916908160001a9053508080600101915050612831565b600090505b845181101561299c57848181518110151561290057fe5b9060200101517f010000000000000000000000000000000000000000000000000000000000000090047f010000000000000000000000000000000000000000000000000000000000000002838380600101945081518110151561295f57fe5b9060200101907effffffffffffffffffffffffffffffffffffffffffffffffffffffffffffff1916908160001a90535080806001019150506128e9565b82965050505050505092915050565b828054600181600116156101000203166002900490600052602060002090601f016020900481019282601f106129ec57805160ff1916838001178555612a1a565b82800160010185558215612a1a579182015b82811115612a195782518255916020019190600101906129fe565b5b509050612a279190612a2b565b5090565b612a4d91905b80821115612a49576000816000905550600101612a31565b5090565b905600a165627a7a72305820ca36c58a73c527363e5269b1d65c91098797a429be78aa30c73c618c645be5a60029",
  "source": "pragma solidity ^0.4.24;\r\n\r\nimport \"./interfaces/IGroupChat.sol\";\r\nimport \"./lib/safeMath.sol\";\r\nimport \"./interfaces/IRedPacket.sol\";\r\n\r\ncontract RedPacket is IRedPacket {\r\n    using SafeMath for uint;\r\n    using SafeMath for uint256;\r\n    address owner; // owner has permissions to modify parameters\r\n    bool public enabled = true; // if upgrade contract, then the old contract should be disabled\r\n    \r\n    address groupChatAddress;\r\n    IGroupChat groupchatInstance;\r\n\r\n    uint256 public period = 1 days;\r\n    uint256 public upper = 10000 ether; // The upper per packet\r\n    uint public sub_packet_cnt_upper = 100;\r\n\r\n    struct Packet {\r\n        uint group_id;\r\n        address sender;\r\n        uint count;\r\n        uint256 amount;\r\n        uint remain_cnt;\r\n        uint256 remains; // remaining fund\r\n        bool existed;\r\n        bool refunded;\r\n        uint256 created_at;\r\n        string bless;\r\n        mapping(address => bool) grabbed; // every address can only grab one packet\r\n    }\r\n\r\n    uint packet_seq = 0;\r\n\r\n    mapping(uint => Packet) internal packets;\r\n    \r\n    modifier onlyOwner() {\r\n        require(msg.sender == owner, \"You're not the owner of this contract\");\r\n        _;\r\n    }\r\n\r\n    modifier onlyEnabled() {\r\n        require(enabled);\r\n        _;\r\n    }\r\n\r\n    constructor() public {\r\n        owner = msg.sender;\r\n    }\r\n\r\n    function strConcat(string _a, string _b) internal pure returns (string){\r\n        bytes memory a = bytes(_a);\r\n        bytes memory b = bytes(_b);\r\n        string memory ab = new string(a.length + b.length);\r\n        bytes memory aAB = bytes(ab);\r\n        uint k = 0;\r\n        for (uint i = 0; i < a.length; i++) aAB[k++] = a[i];\r\n        for (i = 0; i < b.length; i++) aAB[k++] = b[i];\r\n        return string(aAB);\r\n    }\r\n\r\n    function uintToString(uint i) internal pure returns (string) {\r\n        if (i == 0) return \"0\";\r\n        uint j = i;\r\n        uint length;\r\n        while (j != 0){\r\n            length++;\r\n            j /= 10;\r\n        }\r\n        bytes memory bstr = new bytes(length);\r\n        uint k = length - 1;\r\n        while (i != 0){\r\n            bstr[k--] = byte(48 + i % 10);\r\n            i /= 10;\r\n        }\r\n        return string(bstr);\r\n    }\r\n\r\n    function getMessageWithSeq(uint seq) public pure returns (string) {\r\n        string memory _id = uintToString(seq);\r\n        string memory msg0 = \"{\\\"message\\\":{\\\"seq\\\":\";\r\n        string memory msg1 = \"},\\\"type\\\":\\\"redpacket\\\",\\\"version\\\":\\\"2.1\\\"}\";\r\n        string memory message = strConcat(msg0, _id);\r\n        message = strConcat(message, msg1);\r\n        return message;\r\n    }\r\n\r\n    function setGroupChat(address groupchat) public onlyOwner {\r\n        groupChatAddress = groupchat;\r\n        groupchatInstance = IGroupChat(groupchat);   \r\n    }\r\n\r\n    // owner can enable and disable rnode contract\r\n    function enableContract() public onlyOwner {\r\n        enabled = true;\r\n    }\r\n\r\n    function disableContract() public onlyOwner {\r\n        enabled = false;\r\n    }\r\n\r\n    function setPeriod(uint256 new_period) public onlyEnabled onlyOwner {\r\n        require(new_period > 1 seconds, \"The period should greater than 1 second\");\r\n        period = new_period;\r\n    }\r\n\r\n    function setUpper(uint256 new_upper) public onlyEnabled onlyOwner {\r\n        require(new_upper >= 1 ether, \"The upper per packet can not be less than 1\");\r\n        require(new_upper <= 1000000 ether, \"The upper per packet can not be greater than 1 million\");\r\n        upper = new_upper;\r\n    }\r\n\r\n    function setSubPacketCntUpper(uint new_cnt) public onlyEnabled onlyOwner {\r\n        require(sub_packet_cnt_upper > 1, \"The upper can't be less than 1\");\r\n        sub_packet_cnt_upper = new_cnt;\r\n    }\r\n\r\n    /**\r\n     * Create a red packet. Specify the group_id and the count of sub red packet.\r\n     * This function will send an application message in the group chat.\r\n     * Emits {CreateRedPacket} event\r\n     * Returns packet ID.\r\n     */\r\n    function createRedPacket(uint group_id, uint count, string bless) external payable onlyEnabled returns (uint) {\r\n        require(msg.value <= upper, \"The value can't be greater than the upper\");\r\n        require(msg.value >= 1 ether, \"The value can't less than 1 CPC\");\r\n        require(count >= 1, \"The count should greater than 1\");\r\n        require(count <= sub_packet_cnt_upper, \"The count should less than the upper\");\r\n        require(bytes(bless).length < 100, \"Length of bless should less than 100\");\r\n        packet_seq += 1;\r\n        packets[packet_seq] = Packet({\r\n            group_id: group_id,\r\n            sender: msg.sender,\r\n            count: count,\r\n            amount: msg.value,\r\n            remain_cnt: count,\r\n            remains: msg.value,\r\n            existed: true,\r\n            refunded: false,\r\n            bless: bless,\r\n            created_at: block.timestamp\r\n        });\r\n        bool sent = false;\r\n        if (groupChatAddress != address(0x0)) {\r\n            require(groupchatInstance.has(group_id, msg.sender), \"You are not in this group\");\r\n            require(!groupchatInstance.isBanned(group_id, msg.sender), \"You have been banned\");\r\n            // message\r\n            string memory message = getMessageWithSeq(packet_seq);\r\n            groupchatInstance.sendMessage(group_id, message);\r\n            sent = true;\r\n        }\r\n        emit CreateRedPacket(group_id, packet_seq, msg.sender, bless, msg.value, count, sent);\r\n    }\r\n\r\n    /**\r\n     * Grab a red packet.\r\n     * Emits {GrabRedPacket} event\r\n     */\r\n    function grabRedPacket(uint packet_id) external {\r\n        require(packets[packet_id].existed, \"This packet not found\");\r\n        require(packets[packet_id].remains > 0, \"This packet is empty now\");\r\n        require(packets[packet_id].remain_cnt > 0, \"This packet is empty now\");\r\n        require(!packets[packet_id].grabbed[msg.sender], \"You have grabbed\");\r\n        if (groupChatAddress != address(0x0)) {\r\n            require(groupchatInstance.has(packets[packet_id].group_id, msg.sender), \"You are not in this group\");\r\n            require(!groupchatInstance.isBanned(packets[packet_id].group_id, msg.sender), \"You have been banned\");\r\n        }\r\n        uint256 random = packets[packet_id].remains;\r\n        if (packets[packet_id].remain_cnt > 1) {\r\n            // range: (M/N * 2)M N \r\n            uint256 range = packets[packet_id].remains / packets[packet_id].remain_cnt * 2;\r\n            random = uint256(keccak256(abi.encodePacked(block.timestamp, block.difficulty, packet_id, \r\n                packets[packet_id].amount, msg.sender, packets[packet_id].sender))) % range;\r\n        }\r\n        packets[packet_id].remains -= random;\r\n        packets[packet_id].remain_cnt -= 1;\r\n        packets[packet_id].grabbed[msg.sender] = true;\r\n        msg.sender.transfer(random);\r\n        emit GrabRedPacket(packets[packet_id].group_id, packet_id, msg.sender, random);\r\n    }\r\n\r\n    /**\r\n     * Refund after specify period if the red packet still remain.\r\n     * Emits {Refund} event\r\n     */\r\n    function refund(uint packet_id) external {\r\n        require(packets[packet_id].existed, \"This packet not found\");\r\n        require(packets[packet_id].remains > 0, \"This packet is empty now\");\r\n        require(packets[packet_id].remain_cnt > 0, \"This packet is empty now\");\r\n        require(packets[packet_id].created_at + period <= block.timestamp, \"Your red packet is still locked\");\r\n        require(packets[packet_id].sender == msg.sender, \"You are not the sender of the packet\");\r\n        msg.sender.transfer(packets[packet_id].remains);\r\n        packets[packet_id].remains = 0;\r\n        packets[packet_id].refunded = true;\r\n    }\r\n\r\n    /**\r\n     * Change the owner of the contract. If the address is a contract, the contract should be IAdmin.\r\n     */\r\n    function changeOwner(address to) external onlyEnabled onlyOwner {\r\n        owner = to;\r\n    }\r\n}\r\n",
  "sourcePath": "E:\\cpchain-dapps-red-packet\\contracts\\RedPacket.sol",
  "compiler": {
    "name": "solc",
    "version": "0.4.25+commit.59dbf8f1.Linux.g++"
  },
  "schemaVersion": "3.4.4",
  "updatedAt": "2021-12-24T02:14:49.554Z",
  "networkType": "ethereum",
  "devdoc": {
    "methods": {}
  },
  "userdoc": {
    "methods": {
      "changeOwner(address)": {
        "notice": "Change the owner of the contract. If the address is a contract, the contract should be IAdmin.\r"
      },
      "createRedPacket(uint256,uint256,string)": {
        "notice": "Create a red packet. Specify the group_id and the count of sub red packet.\r This function will send an application message in the group chat.\r Emits {CreateRedPacket} event\r Returns packet ID.\r"
      },
      "grabRedPacket(uint256)": {
        "notice": "Grab a red packet.\r Emits {GrabRedPacket} event\r"
      },
      "refund(uint256)": {
        "notice": "Refund after specify period if the red packet still remain.\r Emits {Refund} event\r"
      }
    }
  }
}